{
  "contractName": "BetContract",
  "abi": [
    {
      "anonymous": false,
      "inputs": [
        {
          "indexed": false,
          "internalType": "uint256",
          "name": "id",
          "type": "uint256"
        },
        {
          "indexed": false,
          "internalType": "string",
          "name": "question",
          "type": "string"
        },
        {
          "indexed": false,
          "internalType": "string[]",
          "name": "choices",
          "type": "string[]"
        }
      ],
      "name": "BetCreated",
      "type": "event"
    },
    {
      "anonymous": false,
      "inputs": [
        {
          "indexed": false,
          "internalType": "uint256",
          "name": "betId",
          "type": "uint256"
        },
        {
          "indexed": false,
          "internalType": "address",
          "name": "bettor",
          "type": "address"
        },
        {
          "indexed": false,
          "internalType": "uint256",
          "name": "choice",
          "type": "uint256"
        },
        {
          "indexed": false,
          "internalType": "uint256",
          "name": "amount",
          "type": "uint256"
        }
      ],
      "name": "BetPlaced",
      "type": "event"
    },
    {
      "anonymous": false,
      "inputs": [
        {
          "indexed": false,
          "internalType": "uint256",
          "name": "betId",
          "type": "uint256"
        },
        {
          "indexed": false,
          "internalType": "uint256",
          "name": "winningChoice",
          "type": "uint256"
        }
      ],
      "name": "BetWinnerDeclared",
      "type": "event"
    },
    {
      "inputs": [
        {
          "internalType": "uint256",
          "name": "",
          "type": "uint256"
        }
      ],
      "name": "bets",
      "outputs": [
        {
          "internalType": "uint256",
          "name": "id",
          "type": "uint256"
        },
        {
          "internalType": "string",
          "name": "question",
          "type": "string"
        },
        {
          "internalType": "uint256",
          "name": "amount",
          "type": "uint256"
        },
        {
          "internalType": "bool",
          "name": "isActive",
          "type": "bool"
        },
        {
          "internalType": "address",
          "name": "createdBy",
          "type": "address"
        },
        {
          "internalType": "uint256",
          "name": "winningChoice",
          "type": "uint256"
        }
      ],
      "stateMutability": "view",
      "type": "function"
    },
    {
      "inputs": [
        {
          "internalType": "address",
          "name": "",
          "type": "address"
        }
      ],
      "name": "registeredUsers",
      "outputs": [
        {
          "internalType": "bool",
          "name": "",
          "type": "bool"
        }
      ],
      "stateMutability": "view",
      "type": "function"
    },
    {
      "inputs": [],
      "name": "totalBets",
      "outputs": [
        {
          "internalType": "uint256",
          "name": "",
          "type": "uint256"
        }
      ],
      "stateMutability": "view",
      "type": "function"
    },
    {
      "inputs": [
        {
          "internalType": "address",
          "name": "",
          "type": "address"
        },
        {
          "internalType": "uint256",
          "name": "",
          "type": "uint256"
        }
      ],
      "name": "userBetPlaced",
      "outputs": [
        {
          "internalType": "bool",
          "name": "",
          "type": "bool"
        }
      ],
      "stateMutability": "view",
      "type": "function"
    },
    {
      "inputs": [
        {
          "internalType": "address",
          "name": "",
          "type": "address"
        }
      ],
      "name": "winnings",
      "outputs": [
        {
          "internalType": "uint256",
          "name": "",
          "type": "uint256"
        }
      ],
      "stateMutability": "view",
      "type": "function"
    },
    {
      "inputs": [],
      "name": "registerUser",
      "outputs": [],
      "stateMutability": "nonpayable",
      "type": "function"
    },
    {
      "inputs": [
        {
          "internalType": "uint256",
          "name": "_betId",
          "type": "uint256"
        }
      ],
      "name": "getBet",
      "outputs": [
        {
          "components": [
            {
              "internalType": "uint256",
              "name": "id",
              "type": "uint256"
            },
            {
              "internalType": "string",
              "name": "question",
              "type": "string"
            },
            {
              "internalType": "string[]",
              "name": "choices",
              "type": "string[]"
            },
            {
              "internalType": "uint256",
              "name": "amountPlaced",
              "type": "uint256"
            },
            {
              "internalType": "bool[]",
              "name": "choicesMade",
              "type": "bool[]"
            },
            {
              "internalType": "bool",
              "name": "isActive",
              "type": "bool"
            },
            {
              "internalType": "uint256",
              "name": "winningChoice",
              "type": "uint256"
            }
          ],
          "internalType": "struct BetContract.BetInfo",
          "name": "",
          "type": "tuple"
        }
      ],
      "stateMutability": "view",
      "type": "function"
    },
    {
      "inputs": [
        {
          "internalType": "string",
          "name": "_question",
          "type": "string"
        },
        {
          "internalType": "string[]",
          "name": "_choices",
          "type": "string[]"
        }
      ],
      "name": "createBet",
      "outputs": [],
      "stateMutability": "nonpayable",
      "type": "function"
    },
    {
      "inputs": [
        {
          "internalType": "uint256",
          "name": "_betId",
          "type": "uint256"
        },
        {
          "internalType": "uint256",
          "name": "_choice",
          "type": "uint256"
        }
      ],
      "name": "placeBet",
      "outputs": [],
      "stateMutability": "payable",
      "type": "function"
    },
    {
      "inputs": [
        {
          "internalType": "uint256",
          "name": "_betId",
          "type": "uint256"
        },
        {
          "internalType": "uint256",
          "name": "_winningChoice",
          "type": "uint256"
        }
      ],
      "name": "declareWinner",
      "outputs": [],
      "stateMutability": "nonpayable",
      "type": "function"
    }
  ],
  "bytecode": "0x608060405234801561001057600080fd5b50612335806100206000396000f3fe6080604052600436106100915760003560e01c80634d3820eb116100595780634d3820eb146101975780636788be03146101ae578063796782fd146101d7578063befa1e2f14610214578063ea3a14991461023f57610091565b8063061e494f146100965780630e50cee5146100d35780631643c8c41461011057806322af00fa146101395780634afe62b51461017b575b600080fd5b3480156100a257600080fd5b506100bd60048036038101906100b8919061157f565b61027c565b6040516100ca9190611d13565b60405180910390f35b3480156100df57600080fd5b506100fa60048036038101906100f591906114ae565b610655565b6040516101079190611bf8565b60405180910390f35b34801561011c57600080fd5b50610137600480360381019061013291906115a8565b610675565b005b34801561014557600080fd5b50610160600480360381019061015b919061157f565b610b00565b60405161017296959493929190611d95565b60405180910390f35b610195600480360381019061019091906115a8565b610c01565b005b3480156101a357600080fd5b506101ac610f9a565b005b3480156101ba57600080fd5b506101d560048036038101906101d09190611513565b610ff4565b005b3480156101e357600080fd5b506101fe60048036038101906101f991906114d7565b6111a2565b60405161020b9190611bf8565b60405180910390f35b34801561022057600080fd5b506102296111d1565b6040516102369190611d35565b60405180910390f35b34801561024b57600080fd5b50610266600480360381019061026191906114ae565b6111d7565b6040516102739190611d35565b60405180910390f35b6102846111ef565b60015482106102c8576040517f08c379a00000000000000000000000000000000000000000000000000000000081526004016102bf90611c73565b60405180910390fd5b6000808381548110610303577f4e487b7100000000000000000000000000000000000000000000000000000000600052603260045260246000fd5b9060005260206000209060070201905061031b6111ef565b816000015481600001818152505081600101805461033890612189565b80601f016020809104026020016040519081016040528092919081815260200182805461036490612189565b80156103b15780601f10610386576101008083540402835291602001916103b1565b820191906000526020600020905b81548152906001019060200180831161039457829003601f168201915b5050505050816020018190525081600201805480602002602001604051908101604052809291908181526020016000905b8282101561048e57838290600052602060002001805461040190612189565b80601f016020809104026020016040519081016040528092919081815260200182805461042d90612189565b801561047a5780601f1061044f5761010080835404028352916020019161047a565b820191906000526020600020905b81548152906001019060200180831161045d57829003601f168201915b5050505050815260200190600101906103e2565b5050505081604001819052508160030160003373ffffffffffffffffffffffffffffffffffffffff1673ffffffffffffffffffffffffffffffffffffffff16815260200190815260200160002054816060018181525050816002018054905067ffffffffffffffff81111561052c577f4e487b7100000000000000000000000000000000000000000000000000000000600052604160045260246000fd5b60405190808252806020026020018201604052801561055a5781602001602082028036833780820191505090505b5081608001819052508160050160009054906101000a900460ff168160a001901515908115158152505081600601548160c001818152505060005b826002018054905081101561064a57808360030160003373ffffffffffffffffffffffffffffffffffffffff1673ffffffffffffffffffffffffffffffffffffffff168152602001908152602001600020541482608001518281518110610625577f4e487b7100000000000000000000000000000000000000000000000000000000600052603260045260246000fd5b6020026020010190151590811515815250508080610642906121bb565b915050610595565b508092505050919050565b60026020528060005260406000206000915054906101000a900460ff1681565b60015482106106b9576040517f08c379a00000000000000000000000000000000000000000000000000000000081526004016106b090611c73565b60405180910390fd5b60008083815481106106f4577f4e487b7100000000000000000000000000000000000000000000000000000000600052603260045260246000fd5b906000526020600020906007020190508060050160019054906101000a900473ffffffffffffffffffffffffffffffffffffffff1673ffffffffffffffffffffffffffffffffffffffff163373ffffffffffffffffffffffffffffffffffffffff1614610796576040517f08c379a000000000000000000000000000000000000000000000000000000000815260040161078d90611c93565b60405180910390fd5b806002018054905082106107df576040517f08c379a00000000000000000000000000000000000000000000000000000000081526004016107d690611cf3565b60405180910390fd5b8060050160009054906101000a900460ff16610830576040517f08c379a000000000000000000000000000000000000000000000000000000000815260040161082790611cd3565b60405180910390fd5b60008160050160006101000a81548160ff0219169083151502179055508181600601819055507f0a39014d5cb2cb9513ccd408692fbda0a6190b259fc649c6013bc8bda8ee3aaa8383604051610887929190611e42565b60405180910390a1600047905060008060005b84600201805490508110156108d357858114156108c05781806108bc906121bb565b9250505b80806108cb906121bb565b91505061089a565b5060005b8460020180549050811015610a7157600081905060008660030160008373ffffffffffffffffffffffffffffffffffffffff1673ffffffffffffffffffffffffffffffffffffffff168152602001908152602001600020549050878314156109cd57600084886004015461094b9190612071565b82886109579190612071565b6109619190612040565b905080600360008573ffffffffffffffffffffffffffffffffffffffff1673ffffffffffffffffffffffffffffffffffffffff16815260200190815260200160002060008282546109b29190611fea565b9250508190555080866109c59190611fea565b955050610a15565b8173ffffffffffffffffffffffffffffffffffffffff166108fc829081150290604051600060405180830381858888f19350505050158015610a13573d6000803e3d6000fd5b505b60008760030160008473ffffffffffffffffffffffffffffffffffffffff1673ffffffffffffffffffffffffffffffffffffffff1681526020019081526020016000208190555050508080610a69906121bb565b9150506108d7565b5060008284610a8091906120cb565b90506000811115610af7578460050160019054906101000a900473ffffffffffffffffffffffffffffffffffffffff1673ffffffffffffffffffffffffffffffffffffffff166108fc829081150290604051600060405180830381858888f19350505050158015610af5573d6000803e3d6000fd5b505b50505050505050565b60008181548110610b1057600080fd5b9060005260206000209060070201600091509050806000015490806001018054610b3990612189565b80601f0160208091040260200160405190810160405280929190818152602001828054610b6590612189565b8015610bb25780601f10610b8757610100808354040283529160200191610bb2565b820191906000526020600020905b815481529060010190602001808311610b9557829003601f168201915b5050505050908060040154908060050160009054906101000a900460ff16908060050160019054906101000a900473ffffffffffffffffffffffffffffffffffffffff16908060060154905086565b600260003373ffffffffffffffffffffffffffffffffffffffff1673ffffffffffffffffffffffffffffffffffffffff16815260200190815260200160002060009054906101000a900460ff16610c8d576040517f08c379a0000000000000000000000000000000000000000000000000000000008152600401610c8490611c53565b60405180910390fd5b6001548210610cd1576040517f08c379a0000000000000000000000000000000000000000000000000000000008152600401610cc890611c73565b60405180910390fd5b6000808381548110610d0c577f4e487b7100000000000000000000000000000000000000000000000000000000600052603260045260246000fd5b9060005260206000209060070201905080600201805490508210610d65576040517f08c379a0000000000000000000000000000000000000000000000000000000008152600401610d5c90611cb3565b60405180910390fd5b8060050160009054906101000a900460ff16610db6576040517f08c379a0000000000000000000000000000000000000000000000000000000008152600401610dad90611cd3565b60405180910390fd5b60003411610df9576040517f08c379a0000000000000000000000000000000000000000000000000000000008152600401610df090611c13565b60405180910390fd5b600460003373ffffffffffffffffffffffffffffffffffffffff1673ffffffffffffffffffffffffffffffffffffffff168152602001908152602001600020600084815260200190815260200160002060009054906101000a900460ff1615610e97576040517f08c379a0000000000000000000000000000000000000000000000000000000008152600401610e8e90611c33565b60405180910390fd5b348160030160003373ffffffffffffffffffffffffffffffffffffffff1673ffffffffffffffffffffffffffffffffffffffff1681526020019081526020016000206000828254610ee89190611fea565b925050819055506001600460003373ffffffffffffffffffffffffffffffffffffffff1673ffffffffffffffffffffffffffffffffffffffff168152602001908152602001600020600085815260200190815260200160002060006101000a81548160ff0219169083151502179055507f1b8a9031cb9351278d70a994f81536e9e08c91162e64f92b2fe4766fb7a891b483338434604051610f8d9493929190611d50565b60405180910390a1505050565b6001600260003373ffffffffffffffffffffffffffffffffffffffff1673ffffffffffffffffffffffffffffffffffffffff16815260200190815260200160002060006101000a81548160ff021916908315150217905550565b600260003373ffffffffffffffffffffffffffffffffffffffff1673ffffffffffffffffffffffffffffffffffffffff16815260200190815260200160002060009054906101000a900460ff16611080576040517f08c379a000000000000000000000000000000000000000000000000000000000815260040161107790611c53565b60405180910390fd5b60008060018160018154018082558091505003906000526020600020906007020190506001548160000181905550828160010190805190602001906110c692919061122e565b50818160020190805190602001906110df9291906112b4565b5060018160050160006101000a81548160ff021916908315150217905550338160050160016101000a81548173ffffffffffffffffffffffffffffffffffffffff021916908373ffffffffffffffffffffffffffffffffffffffff16021790555060016000815480929190611153906121bb565b91905055507f4538c39e84407a3d0f84f8064432d48edac9affc682c4bf829d24b2cd4f1ddda8160000154826001018360020160405161119593929190611dfd565b60405180910390a1505050565b60046020528160005260406000206020528060005260406000206000915091509054906101000a900460ff1681565b60015481565b60036020528060005260406000206000915090505481565b6040518060e001604052806000815260200160608152602001606081526020016000815260200160608152602001600015158152602001600081525090565b82805461123a90612189565b90600052602060002090601f01602090048101928261125c57600085556112a3565b82601f1061127557805160ff19168380011785556112a3565b828001600101855582156112a3579182015b828111156112a2578251825591602001919060010190611287565b5b5090506112b09190611314565b5090565b828054828255906000526020600020908101928215611303579160200282015b828111156113025782518290805190602001906112f292919061122e565b50916020019190600101906112d4565b5b5090506113109190611331565b5090565b5b8082111561132d576000816000905550600101611315565b5090565b5b8082111561135157600081816113489190611355565b50600101611332565b5090565b50805461136190612189565b6000825580601f106113735750611392565b601f0160209004906000526020600020908101906113919190611314565b5b50565b60006113a86113a384611e9c565b611e6b565b9050808382526020820190508260005b858110156113e857813585016113ce888261146f565b8452602084019350602083019250506001810190506113b8565b5050509392505050565b600061140561140084611ec8565b611e6b565b90508281526020810184848401111561141d57600080fd5b611428848285612147565b509392505050565b60008135905061143f816122d1565b92915050565b600082601f83011261145657600080fd5b8135611466848260208601611395565b91505092915050565b600082601f83011261148057600080fd5b81356114908482602086016113f2565b91505092915050565b6000813590506114a8816122e8565b92915050565b6000602082840312156114c057600080fd5b60006114ce84828501611430565b91505092915050565b600080604083850312156114ea57600080fd5b60006114f885828601611430565b925050602061150985828601611499565b9150509250929050565b6000806040838503121561152657600080fd5b600083013567ffffffffffffffff81111561154057600080fd5b61154c8582860161146f565b925050602083013567ffffffffffffffff81111561156957600080fd5b61157585828601611445565b9150509250929050565b60006020828403121561159157600080fd5b600061159f84828501611499565b91505092915050565b600080604083850312156115bb57600080fd5b60006115c985828601611499565b92505060206115da85828601611499565b9150509250929050565b60006115f0838361177a565b60208301905092915050565b60006116088383611798565b905092915050565b600061161c838361180a565b905092915050565b61162d816120ff565b82525050565b600061163e82611f42565b6116488185611f95565b935061165383611ef8565b8060005b8381101561168457815161166b88826115e4565b975061167683611f6e565b925050600181019050611657565b5085935050505092915050565b600061169c82611f4d565b6116a68185611fa6565b9350836020820285016116b885611f08565b8060005b858110156116f457848403895281516116d585826115fc565b94506116e083611f7b565b925060208a019950506001810190506116bc565b50829750879550505050505092915050565b600061171182611f58565b61171b8185611fb7565b93508360208202850161172d85611f18565b8060005b85811015611768578484038952816117498582611610565b945061175483611f88565b925060208a01995050600181019050611731565b50829750879550505050505092915050565b61178381612111565b82525050565b61179281612111565b82525050565b60006117a382611f63565b6117ad8185611fc8565b93506117bd818560208601612156565b6117c6816122c0565b840191505092915050565b60006117dc82611f63565b6117e68185611fd9565b93506117f6818560208601612156565b6117ff816122c0565b840191505092915050565b6000815461181781612189565b6118218186611fc8565b9450600182166000811461183c576001811461184e57611881565b60ff1983168652602086019350611881565b61185785611f2d565b60005b838110156118795781548189015260018201915060208101905061185a565b808801955050505b50505092915050565b6000815461189781612189565b6118a18186611fd9565b945060018216600081146118bc57600181146118ce57611901565b60ff1983168652602086019350611901565b6118d785611f2d565b60005b838110156118f9578154818901526001820191506020810190506118da565b808801955050505b50505092915050565b6000611917601483611fd9565b91507f496e636f72726563742062657420616d6f756e740000000000000000000000006000830152602082019050919050565b6000611957601e83611fd9565b91507f42657420616c726561647920706c6163656420627920746865207573657200006000830152602082019050919050565b6000611997601683611fd9565b91507f55736572206973206e6f742072656769737465726564000000000000000000006000830152602082019050919050565b60006119d7600e83611fd9565b91507f496e76616c6964206265742049440000000000000000000000000000000000006000830152602082019050919050565b6000611a17602783611fd9565b91507f4f6e6c79207468652063726561746f722063616e206465636c6172652074686560008301527f2077696e6e6572000000000000000000000000000000000000000000000000006020830152604082019050919050565b6000611a7d600e83611fd9565b91507f496e76616c69642063686f6963650000000000000000000000000000000000006000830152602082019050919050565b6000611abd601183611fd9565b91507f426574206973206e6f74206163746976650000000000000000000000000000006000830152602082019050919050565b6000611afd601683611fd9565b91507f496e76616c69642077696e6e696e672063686f696365000000000000000000006000830152602082019050919050565b600060e083016000830151611b486000860182611bda565b5060208301518482036020860152611b608282611798565b91505060408301518482036040860152611b7a8282611691565b9150506060830151611b8f6060860182611bda565b5060808301518482036080860152611ba78282611633565b91505060a0830151611bbc60a086018261177a565b5060c0830151611bcf60c0860182611bda565b508091505092915050565b611be38161213d565b82525050565b611bf28161213d565b82525050565b6000602082019050611c0d6000830184611789565b92915050565b60006020820190508181036000830152611c2c8161190a565b9050919050565b60006020820190508181036000830152611c4c8161194a565b9050919050565b60006020820190508181036000830152611c6c8161198a565b9050919050565b60006020820190508181036000830152611c8c816119ca565b9050919050565b60006020820190508181036000830152611cac81611a0a565b9050919050565b60006020820190508181036000830152611ccc81611a70565b9050919050565b60006020820190508181036000830152611cec81611ab0565b9050919050565b60006020820190508181036000830152611d0c81611af0565b9050919050565b60006020820190508181036000830152611d2d8184611b30565b905092915050565b6000602082019050611d4a6000830184611be9565b92915050565b6000608082019050611d656000830187611be9565b611d726020830186611624565b611d7f6040830185611be9565b611d8c6060830184611be9565b95945050505050565b600060c082019050611daa6000830189611be9565b8181036020830152611dbc81886117d1565b9050611dcb6040830187611be9565b611dd86060830186611789565b611de56080830185611624565b611df260a0830184611be9565b979650505050505050565b6000606082019050611e126000830186611be9565b8181036020830152611e24818561188a565b90508181036040830152611e388184611706565b9050949350505050565b6000604082019050611e576000830185611be9565b611e646020830184611be9565b9392505050565b6000604051905081810181811067ffffffffffffffff82111715611e9257611e91612291565b5b8060405250919050565b600067ffffffffffffffff821115611eb757611eb6612291565b5b602082029050602081019050919050565b600067ffffffffffffffff821115611ee357611ee2612291565b5b601f19601f8301169050602081019050919050565b6000819050602082019050919050565b6000819050602082019050919050565b60008190508160005260206000209050919050565b60008190508160005260206000209050919050565b600081519050919050565b600081519050919050565b600081549050919050565b600081519050919050565b6000602082019050919050565b6000602082019050919050565b6000600182019050919050565b600082825260208201905092915050565b600082825260208201905092915050565b600082825260208201905092915050565b600082825260208201905092915050565b600082825260208201905092915050565b6000611ff58261213d565b91506120008361213d565b9250827fffffffffffffffffffffffffffffffffffffffffffffffffffffffffffffffff0382111561203557612034612204565b5b828201905092915050565b600061204b8261213d565b91506120568361213d565b92508261206657612065612233565b5b828204905092915050565b600061207c8261213d565b91506120878361213d565b9250817fffffffffffffffffffffffffffffffffffffffffffffffffffffffffffffffff04831182151516156120c0576120bf612204565b5b828202905092915050565b60006120d68261213d565b91506120e18361213d565b9250828210156120f4576120f3612204565b5b828203905092915050565b600061210a8261211d565b9050919050565b60008115159050919050565b600073ffffffffffffffffffffffffffffffffffffffff82169050919050565b6000819050919050565b82818337600083830152505050565b60005b83811015612174578082015181840152602081019050612159565b83811115612183576000848401525b50505050565b600060028204905060018216806121a157607f821691505b602082108114156121b5576121b4612262565b5b50919050565b60006121c68261213d565b91507fffffffffffffffffffffffffffffffffffffffffffffffffffffffffffffffff8214156121f9576121f8612204565b5b600182019050919050565b7f4e487b7100000000000000000000000000000000000000000000000000000000600052601160045260246000fd5b7f4e487b7100000000000000000000000000000000000000000000000000000000600052601260045260246000fd5b7f4e487b7100000000000000000000000000000000000000000000000000000000600052602260045260246000fd5b7f4e487b7100000000000000000000000000000000000000000000000000000000600052604160045260246000fd5b6000601f19601f8301169050919050565b6122da816120ff565b81146122e557600080fd5b50565b6122f18161213d565b81146122fc57600080fd5b5056fea2646970667358221220e95364436a2e5f4cdbf66924d301e16a0cadbff69af2f2d3dd2310c27d45fbc164736f6c63430008000033",
  "immutableReferences": {},
  "source": "// SPDX-License-Identifier: UNLICENSED\r\npragma solidity ^0.8.0;\r\n\r\ncontract BetContract {\r\n    struct Bet {\r\n        uint256 id;\r\n        string question;\r\n        string[] choices;\r\n        mapping(address => uint256) bets;\r\n        uint256 amount;\r\n        bool isActive;\r\n        address createdBy;\r\n        uint256 winningChoice;\r\n    }\r\n\r\n    struct BetInfo {\r\n        uint256 id;\r\n        string question;\r\n        string[] choices;\r\n        uint256 amountPlaced;\r\n        bool[] choicesMade;\r\n        bool isActive;\r\n        uint256 winningChoice;\r\n    }\r\n\r\n    Bet[] public bets;\r\n    uint256 public totalBets;\r\n\r\n    mapping(address => bool) public registeredUsers;\r\n    mapping(address => uint256) public winnings;\r\n    mapping(address => mapping(uint256 => bool)) public userBetPlaced;\r\n\r\n    modifier onlyRegistered() {\r\n        require(registeredUsers[msg.sender], 'User is not registered');\r\n        _;\r\n    }\r\n\r\n    event BetCreated(uint256 id, string question, string[] choices);\r\n    event BetPlaced(uint256 betId, address bettor, uint256 choice, uint256 amount);\r\n    event BetWinnerDeclared(uint256 betId, uint256 winningChoice);\r\n\r\n    function registerUser() external {\r\n        registeredUsers[msg.sender] = true;\r\n    }\r\n\r\n    function getBet(uint256 _betId) external view returns (BetInfo memory) {\r\n        require(_betId < totalBets, 'Invalid bet ID');\r\n        Bet storage bet = bets[_betId];\r\n        BetInfo memory betInfo;\r\n        betInfo.id = bet.id;\r\n        betInfo.question = bet.question;\r\n        betInfo.choices = bet.choices;\r\n        betInfo.amountPlaced = bet.bets[msg.sender];\r\n        betInfo.choicesMade = new bool[](bet.choices.length);\r\n        betInfo.isActive = bet.isActive;\r\n        betInfo.winningChoice = bet.winningChoice;\r\n\r\n        for (uint256 i = 0; i < bet.choices.length; i++) {\r\n            betInfo.choicesMade[i] = (bet.bets[msg.sender] == i);\r\n        }\r\n\r\n        return betInfo;\r\n    }\r\n\r\n    function createBet(string memory _question, string[] memory _choices) external onlyRegistered {\r\n        Bet storage newBet = bets.push();\r\n        newBet.id = totalBets;\r\n        newBet.question = _question;\r\n        newBet.choices = _choices;\r\n        newBet.isActive = true;\r\n        newBet.createdBy = msg.sender;\r\n        totalBets++;\r\n        emit BetCreated(newBet.id, newBet.question, newBet.choices);\r\n    }\r\n\r\n    function placeBet(uint256 _betId, uint256 _choice) external payable onlyRegistered {\r\n        require(_betId < totalBets, 'Invalid bet ID');\r\n        Bet storage bet = bets[_betId];\r\n        require(_choice < bet.choices.length, 'Invalid choice');\r\n        require(bet.isActive, 'Bet is not active');\r\n        require(msg.value > 0, 'Incorrect bet amount');\r\n        require(!userBetPlaced[msg.sender][_betId], 'Bet already placed by the user');\r\n\r\n        bet.bets[msg.sender] += msg.value;\r\n        userBetPlaced[msg.sender][_betId] = true;\r\n        emit BetPlaced(_betId, msg.sender, _choice, msg.value);\r\n    }\r\n\r\n    function declareWinner(uint256 _betId, uint256 _winningChoice) external {\r\n        require(_betId < totalBets, 'Invalid bet ID');\r\n        Bet storage bet = bets[_betId];\r\n        require(msg.sender == bet.createdBy, 'Only the creator can declare the winner');\r\n        require(_winningChoice < bet.choices.length, 'Invalid winning choice');\r\n        require(bet.isActive, 'Bet is not active');\r\n\r\n        bet.isActive = false;\r\n        bet.winningChoice = _winningChoice;\r\n        emit BetWinnerDeclared(_betId, _winningChoice);\r\n\r\n        uint256 totalAmount = address(this).balance;\r\n        uint256 winningAmount = 0;\r\n        uint256 totalWinners = 0;\r\n\r\n        // Calculate the total winning amount and count the number of winners\r\n        for (uint256 i = 0; i < bet.choices.length; i++) {\r\n            if (i == _winningChoice) {\r\n                totalWinners++;\r\n            }\r\n        }\r\n\r\n        // Distribute winnings to the winners and refund the remaining amount to participants\r\n        for (uint256 i = 0; i < bet.choices.length; i++) {\r\n            address bettor = address(uint160(i));\r\n            uint256 betAmount = bet.bets[bettor];\r\n            if (i == _winningChoice) {\r\n                uint256 winAmount = (totalAmount * betAmount) / (bet.amount * totalWinners);\r\n                winnings[bettor] += winAmount;\r\n                winningAmount += winAmount;\r\n            } else {\r\n                payable(bettor).transfer(betAmount);\r\n            }\r\n            bet.bets[bettor] = 0;\r\n        }\r\n\r\n        // Refund any remaining amount to the contract owner\r\n        uint256 remainingAmount = totalAmount - winningAmount;\r\n        if (remainingAmount > 0) {\r\n            payable(bet.createdBy).transfer(remainingAmount);\r\n        }\r\n    }\r\n}\r\n",
  "sourcePath": "C:\\Users\\JAGADEESH NAIK\\Desktop\\d\\betting-dapp\\src\\contracts\\BetContract.sol",
  "compiler": {
    "name": "solc",
    "version": "0.8.0+commit.c7dfd78e.Emscripten.clang"
  },
  "schemaVersion": "3.4.16",
  "updatedAt": "2023-11-13T10:13:03.026Z",
  "devdoc": {
    "kind": "dev",
    "methods": {},
    "version": 1
  },
  "userdoc": {
    "kind": "user",
    "methods": {},
    "version": 1
  }
}